{
  "abi": [
    {
      "inputs": [
        {
          "internalType": "address",
          "name": "marketPlaceAddress",
          "type": "address"
        }
      ],
      "stateMutability": "nonpayable",
      "type": "constructor"
    },
    {
      "anonymous": false,
      "inputs": [
        {
          "indexed": true,
          "internalType": "address",
          "name": "owner",
          "type": "address"
        },
        {
          "indexed": true,
          "internalType": "address",
          "name": "approved",
          "type": "address"
        },
        {
          "indexed": true,
          "internalType": "uint256",
          "name": "tokenId",
          "type": "uint256"
        }
      ],
      "name": "Approval",
      "type": "event"
    },
    {
      "anonymous": false,
      "inputs": [
        {
          "indexed": true,
          "internalType": "address",
          "name": "owner",
          "type": "address"
        },
        {
          "indexed": true,
          "internalType": "address",
          "name": "operator",
          "type": "address"
        },
        {
          "indexed": false,
          "internalType": "bool",
          "name": "approved",
          "type": "bool"
        }
      ],
      "name": "ApprovalForAll",
      "type": "event"
    },
    {
      "anonymous": false,
      "inputs": [
        {
          "indexed": true,
          "internalType": "address",
          "name": "from",
          "type": "address"
        },
        {
          "indexed": true,
          "internalType": "address",
          "name": "to",
          "type": "address"
        },
        {
          "indexed": true,
          "internalType": "uint256",
          "name": "tokenId",
          "type": "uint256"
        }
      ],
      "name": "Transfer",
      "type": "event"
    },
    {
      "inputs": [
        {
          "internalType": "address",
          "name": "to",
          "type": "address"
        },
        {
          "internalType": "uint256",
          "name": "tokenId",
          "type": "uint256"
        }
      ],
      "name": "approve",
      "outputs": [],
      "stateMutability": "nonpayable",
      "type": "function"
    },
    {
      "inputs": [
        {
          "internalType": "address",
          "name": "owner",
          "type": "address"
        }
      ],
      "name": "balanceOf",
      "outputs": [
        {
          "internalType": "uint256",
          "name": "",
          "type": "uint256"
        }
      ],
      "stateMutability": "view",
      "type": "function"
    },
    {
      "inputs": [],
      "name": "contractAddress",
      "outputs": [
        {
          "internalType": "address",
          "name": "",
          "type": "address"
        }
      ],
      "stateMutability": "view",
      "type": "function"
    },
    {
      "inputs": [
        {
          "internalType": "string",
          "name": "_tokenURI",
          "type": "string"
        }
      ],
      "name": "createToken",
      "outputs": [
        {
          "internalType": "uint256",
          "name": "",
          "type": "uint256"
        }
      ],
      "stateMutability": "nonpayable",
      "type": "function"
    },
    {
      "inputs": [
        {
          "internalType": "uint256",
          "name": "tokenId",
          "type": "uint256"
        }
      ],
      "name": "getApproved",
      "outputs": [
        {
          "internalType": "address",
          "name": "",
          "type": "address"
        }
      ],
      "stateMutability": "view",
      "type": "function"
    },
    {
      "inputs": [
        {
          "internalType": "uint256",
          "name": "tokenId",
          "type": "uint256"
        }
      ],
      "name": "giveApprovalForToken",
      "outputs": [],
      "stateMutability": "nonpayable",
      "type": "function"
    },
    {
      "inputs": [
        {
          "internalType": "address",
          "name": "owner",
          "type": "address"
        },
        {
          "internalType": "address",
          "name": "operator",
          "type": "address"
        }
      ],
      "name": "isApprovedForAll",
      "outputs": [
        {
          "internalType": "bool",
          "name": "",
          "type": "bool"
        }
      ],
      "stateMutability": "view",
      "type": "function"
    },
    {
      "inputs": [],
      "name": "name",
      "outputs": [
        {
          "internalType": "string",
          "name": "",
          "type": "string"
        }
      ],
      "stateMutability": "view",
      "type": "function"
    },
    {
      "inputs": [
        {
          "internalType": "uint256",
          "name": "tokenId",
          "type": "uint256"
        }
      ],
      "name": "ownerOf",
      "outputs": [
        {
          "internalType": "address",
          "name": "",
          "type": "address"
        }
      ],
      "stateMutability": "view",
      "type": "function"
    },
    {
      "inputs": [
        {
          "internalType": "address",
          "name": "from",
          "type": "address"
        },
        {
          "internalType": "address",
          "name": "to",
          "type": "address"
        },
        {
          "internalType": "uint256",
          "name": "tokenId",
          "type": "uint256"
        }
      ],
      "name": "safeTransferFrom",
      "outputs": [],
      "stateMutability": "nonpayable",
      "type": "function"
    },
    {
      "inputs": [
        {
          "internalType": "address",
          "name": "from",
          "type": "address"
        },
        {
          "internalType": "address",
          "name": "to",
          "type": "address"
        },
        {
          "internalType": "uint256",
          "name": "tokenId",
          "type": "uint256"
        },
        {
          "internalType": "bytes",
          "name": "data",
          "type": "bytes"
        }
      ],
      "name": "safeTransferFrom",
      "outputs": [],
      "stateMutability": "nonpayable",
      "type": "function"
    },
    {
      "inputs": [
        {
          "internalType": "address",
          "name": "operator",
          "type": "address"
        },
        {
          "internalType": "bool",
          "name": "approved",
          "type": "bool"
        }
      ],
      "name": "setApprovalForAll",
      "outputs": [],
      "stateMutability": "nonpayable",
      "type": "function"
    },
    {
      "inputs": [
        {
          "internalType": "bytes4",
          "name": "interfaceId",
          "type": "bytes4"
        }
      ],
      "name": "supportsInterface",
      "outputs": [
        {
          "internalType": "bool",
          "name": "",
          "type": "bool"
        }
      ],
      "stateMutability": "view",
      "type": "function"
    },
    {
      "inputs": [],
      "name": "symbol",
      "outputs": [
        {
          "internalType": "string",
          "name": "",
          "type": "string"
        }
      ],
      "stateMutability": "view",
      "type": "function"
    },
    {
      "inputs": [
        {
          "internalType": "uint256",
          "name": "tokenId",
          "type": "uint256"
        }
      ],
      "name": "tokenURI",
      "outputs": [
        {
          "internalType": "string",
          "name": "",
          "type": "string"
        }
      ],
      "stateMutability": "view",
      "type": "function"
    },
    {
      "inputs": [
        {
          "internalType": "address",
          "name": "from",
          "type": "address"
        },
        {
          "internalType": "address",
          "name": "to",
          "type": "address"
        },
        {
          "internalType": "uint256",
          "name": "tokenId",
          "type": "uint256"
        }
      ],
      "name": "transferFrom",
      "outputs": [],
      "stateMutability": "nonpayable",
      "type": "function"
    }
  ],
  "bytecode": {
    "object": "0x60806040523480156200001157600080fd5b5060405162001978380380620019788339810160408190526200003491620000c3565b6040518060400160405280601081526020016f4f70656e53746f726520546f6b656e7360801b8152506040518060400160405280600381526020016213d4d560ea1b81525081600090816200008a91906200019a565b5060016200009982826200019a565b5050600880546001600160a01b0319166001600160a01b0393909316929092179091555062000266565b600060208284031215620000d657600080fd5b81516001600160a01b0381168114620000ee57600080fd5b9392505050565b634e487b7160e01b600052604160045260246000fd5b600181811c908216806200012057607f821691505b6020821081036200014157634e487b7160e01b600052602260045260246000fd5b50919050565b601f8211156200019557600081815260208120601f850160051c81016020861015620001705750805b601f850160051c820191505b8181101562000191578281556001016200017c565b5050505b505050565b81516001600160401b03811115620001b657620001b6620000f5565b620001ce81620001c784546200010b565b8462000147565b602080601f831160018114620002065760008415620001ed5750858301515b600019600386901b1c1916600185901b17855562000191565b600085815260208120601f198616915b82811015620002375788860151825594840194600190910190840162000216565b5085821015620002565787850151600019600388901b60f8161c191681555b5050505050600190811b01905550565b61170280620002766000396000f3fe608060405234801561001057600080fd5b50600436106101005760003560e01c80636352211e11610097578063b88d4fde11610066578063b88d4fde1461021d578063c87b56dd14610230578063e985e9c514610243578063f6b4dfb41461025657600080fd5b80636352211e146101dc57806370a08231146101ef57806395d89b4114610202578063a22cb4651461020a57600080fd5b806323b872dd116100d357806323b872dd1461018257806342842e0e14610195578063439d8f74146101a857806345576f94146101bb57600080fd5b806301ffc9a71461010557806306fdde031461012d578063081812fc14610142578063095ea7b31461016d575b600080fd5b6101186101133660046110e5565b610269565b60405190151581526020015b60405180910390f35b6101356102bb565b6040516101249190611152565b610155610150366004611165565b61034d565b6040516001600160a01b039091168152602001610124565b61018061017b36600461119a565b610374565b005b6101806101903660046111c4565b61048e565b6101806101a33660046111c4565b6104bf565b6101806101b6366004611165565b6104da565b6101ce6101c936600461128c565b6104f3565b604051908152602001610124565b6101556101ea366004611165565b610524565b6101ce6101fd3660046112d5565b610584565b61013561060a565b6101806102183660046112f0565b610619565b61018061022b36600461132c565b610628565b61013561023e366004611165565b610660565b6101186102513660046113a8565b610770565b600854610155906001600160a01b031681565b60006001600160e01b031982166380ac58cd60e01b148061029a57506001600160e01b03198216635b5e139f60e01b145b806102b557506301ffc9a760e01b6001600160e01b03198316145b92915050565b6060600080546102ca906113db565b80601f01602080910402602001604051908101604052809291908181526020018280546102f6906113db565b80156103435780601f1061031857610100808354040283529160200191610343565b820191906000526020600020905b81548152906001019060200180831161032657829003601f168201915b5050505050905090565b60006103588261079e565b506000908152600460205260409020546001600160a01b031690565b600061037f82610524565b9050806001600160a01b0316836001600160a01b0316036103f15760405162461bcd60e51b815260206004820152602160248201527f4552433732313a20617070726f76616c20746f2063757272656e74206f776e656044820152603960f91b60648201526084015b60405180910390fd5b336001600160a01b038216148061040d575061040d8133610770565b61047f5760405162461bcd60e51b815260206004820152603d60248201527f4552433732313a20617070726f76652063616c6c6572206973206e6f7420746f60448201527f6b656e206f776e6572206f7220617070726f76656420666f7220616c6c00000060648201526084016103e8565b61048983836107fd565b505050565b610498338261086b565b6104b45760405162461bcd60e51b81526004016103e890611415565b6104898383836108c9565b61048983838360405180602001604052806000815250610628565b6008546104f0906001600160a01b031682610374565b50565b6000610503600780546001019055565b600061050e60075490565b905061051a3382610a3a565b6102b58184610bd3565b6000818152600260205260408120546001600160a01b0316806102b55760405162461bcd60e51b8152602060048201526018602482015277115490cdcc8c4e881a5b9d985b1a59081d1bdad95b88125160421b60448201526064016103e8565b60006001600160a01b0382166105ee5760405162461bcd60e51b815260206004820152602960248201527f4552433732313a2061646472657373207a65726f206973206e6f7420612076616044820152683634b21037bbb732b960b91b60648201526084016103e8565b506001600160a01b031660009081526003602052604090205490565b6060600180546102ca906113db565b610624338383610c66565b5050565b610632338361086b565b61064e5760405162461bcd60e51b81526004016103e890611415565b61065a84848484610d34565b50505050565b606061066b8261079e565b60008281526006602052604081208054610684906113db565b80601f01602080910402602001604051908101604052809291908181526020018280546106b0906113db565b80156106fd5780601f106106d2576101008083540402835291602001916106fd565b820191906000526020600020905b8154815290600101906020018083116106e057829003601f168201915b50505050509050600061071b60408051602081019091526000815290565b9050805160000361072d575092915050565b81511561075f578082604051602001610747929190611462565b60405160208183030381529060405292505050919050565b61076884610d67565b949350505050565b6001600160a01b03918216600090815260056020908152604080832093909416825291909152205460ff1690565b6000818152600260205260409020546001600160a01b03166104f05760405162461bcd60e51b8152602060048201526018602482015277115490cdcc8c4e881a5b9d985b1a59081d1bdad95b88125160421b60448201526064016103e8565b600081815260046020526040902080546001600160a01b0319166001600160a01b038416908117909155819061083282610524565b6001600160a01b03167f8c5be1e5ebec7d5bd14f71427d1e84f3dd0314c0f7b2291e5b200ac8c7c3b92560405160405180910390a45050565b60008061087783610524565b9050806001600160a01b0316846001600160a01b0316148061089e575061089e8185610770565b806107685750836001600160a01b03166108b78461034d565b6001600160a01b031614949350505050565b826001600160a01b03166108dc82610524565b6001600160a01b0316146109025760405162461bcd60e51b81526004016103e890611491565b6001600160a01b0382166109645760405162461bcd60e51b8152602060048201526024808201527f4552433732313a207472616e7366657220746f20746865207a65726f206164646044820152637265737360e01b60648201526084016103e8565b6109718383836001610ddb565b826001600160a01b031661098482610524565b6001600160a01b0316146109aa5760405162461bcd60e51b81526004016103e890611491565b600081815260046020908152604080832080546001600160a01b03199081169091556001600160a01b0387811680865260038552838620805460001901905590871680865283862080546001019055868652600290945282852080549092168417909155905184937fddf252ad1be2c89b69c2b068fc378daa952ba7f163c4a11628f55a4df523b3ef91a4505050565b6001600160a01b038216610a905760405162461bcd60e51b815260206004820181905260248201527f4552433732313a206d696e7420746f20746865207a65726f206164647265737360448201526064016103e8565b6000818152600260205260409020546001600160a01b031615610af55760405162461bcd60e51b815260206004820152601c60248201527f4552433732313a20746f6b656e20616c7265616479206d696e7465640000000060448201526064016103e8565b610b03600083836001610ddb565b6000818152600260205260409020546001600160a01b031615610b685760405162461bcd60e51b815260206004820152601c60248201527f4552433732313a20746f6b656e20616c7265616479206d696e7465640000000060448201526064016103e8565b6001600160a01b038216600081815260036020908152604080832080546001019055848352600290915280822080546001600160a01b0319168417905551839291907fddf252ad1be2c89b69c2b068fc378daa952ba7f163c4a11628f55a4df523b3ef908290a45050565b6000828152600260205260409020546001600160a01b0316610c4e5760405162461bcd60e51b815260206004820152602e60248201527f45524337323155524953746f726167653a2055524920736574206f66206e6f6e60448201526d32bc34b9ba32b73a103a37b5b2b760911b60648201526084016103e8565b60008281526006602052604090206104898282611524565b816001600160a01b0316836001600160a01b031603610cc75760405162461bcd60e51b815260206004820152601960248201527f4552433732313a20617070726f766520746f2063616c6c65720000000000000060448201526064016103e8565b6001600160a01b03838116600081815260056020908152604080832094871680845294825291829020805460ff191686151590811790915591519182527f17307eab39ab6107e8899845ad3d59bd9653f200f220920489ca2b5937696c31910160405180910390a3505050565b610d3f8484846108c9565b610d4b84848484610e63565b61065a5760405162461bcd60e51b81526004016103e8906115e4565b6060610d728261079e565b6000610d8960408051602081019091526000815290565b90506000815111610da95760405180602001604052806000815250610dd4565b80610db384610f64565b604051602001610dc4929190611462565b6040516020818303038152906040525b9392505050565b600181111561065a576001600160a01b03841615610e21576001600160a01b03841660009081526003602052604081208054839290610e1b90849061164c565b90915550505b6001600160a01b0383161561065a576001600160a01b03831660009081526003602052604081208054839290610e5890849061165f565b909155505050505050565b60006001600160a01b0384163b15610f5957604051630a85bd0160e11b81526001600160a01b0385169063150b7a0290610ea7903390899088908890600401611672565b6020604051808303816000875af1925050508015610ee2575060408051601f3d908101601f19168201909252610edf918101906116af565b60015b610f3f573d808015610f10576040519150601f19603f3d011682016040523d82523d6000602084013e610f15565b606091505b508051600003610f375760405162461bcd60e51b81526004016103e8906115e4565b805181602001fd5b6001600160e01b031916630a85bd0160e11b149050610768565b506001949350505050565b60606000610f7183610ff7565b600101905060008167ffffffffffffffff811115610f9157610f91611200565b6040519080825280601f01601f191660200182016040528015610fbb576020820181803683370190505b5090508181016020015b600019016f181899199a1a9b1b9c1cb0b131b232b360811b600a86061a8153600a8504945084610fc557509392505050565b60008072184f03e93ff9f4daa797ed6e38ed64bf6a1f0160401b83106110365772184f03e93ff9f4daa797ed6e38ed64bf6a1f0160401b830492506040015b6d04ee2d6d415b85acef81000000008310611062576d04ee2d6d415b85acef8100000000830492506020015b662386f26fc10000831061108057662386f26fc10000830492506010015b6305f5e1008310611098576305f5e100830492506008015b61271083106110ac57612710830492506004015b606483106110be576064830492506002015b600a83106102b55760010192915050565b6001600160e01b0319811681146104f057600080fd5b6000602082840312156110f757600080fd5b8135610dd4816110cf565b60005b8381101561111d578181015183820152602001611105565b50506000910152565b6000815180845261113e816020860160208601611102565b601f01601f19169290920160200192915050565b602081526000610dd46020830184611126565b60006020828403121561117757600080fd5b5035919050565b80356001600160a01b038116811461119557600080fd5b919050565b600080604083850312156111ad57600080fd5b6111b68361117e565b946020939093013593505050565b6000806000606084860312156111d957600080fd5b6111e28461117e565b92506111f06020850161117e565b9150604084013590509250925092565b634e487b7160e01b600052604160045260246000fd5b600067ffffffffffffffff8084111561123157611231611200565b604051601f8501601f19908116603f0116810190828211818310171561125957611259611200565b8160405280935085815286868601111561127257600080fd5b858560208301376000602087830101525050509392505050565b60006020828403121561129e57600080fd5b813567ffffffffffffffff8111156112b557600080fd5b8201601f810184136112c657600080fd5b61076884823560208401611216565b6000602082840312156112e757600080fd5b610dd48261117e565b6000806040838503121561130357600080fd5b61130c8361117e565b91506020830135801515811461132157600080fd5b809150509250929050565b6000806000806080858703121561134257600080fd5b61134b8561117e565b93506113596020860161117e565b925060408501359150606085013567ffffffffffffffff81111561137c57600080fd5b8501601f8101871361138d57600080fd5b61139c87823560208401611216565b91505092959194509250565b600080604083850312156113bb57600080fd5b6113c48361117e565b91506113d26020840161117e565b90509250929050565b600181811c908216806113ef57607f821691505b60208210810361140f57634e487b7160e01b600052602260045260246000fd5b50919050565b6020808252602d908201527f4552433732313a2063616c6c6572206973206e6f7420746f6b656e206f776e6560408201526c1c881bdc88185c1c1c9bdd9959609a1b606082015260800190565b60008351611474818460208801611102565b835190830190611488818360208801611102565b01949350505050565b60208082526025908201527f4552433732313a207472616e736665722066726f6d20696e636f72726563742060408201526437bbb732b960d91b606082015260800190565b601f82111561048957600081815260208120601f850160051c810160208610156114fd5750805b601f850160051c820191505b8181101561151c57828155600101611509565b505050505050565b815167ffffffffffffffff81111561153e5761153e611200565b6115528161154c84546113db565b846114d6565b602080601f831160018114611587576000841561156f5750858301515b600019600386901b1c1916600185901b17855561151c565b600085815260208120601f198616915b828110156115b657888601518255948401946001909101908401611597565b50858210156115d45787850151600019600388901b60f8161c191681555b5050505050600190811b01905550565b60208082526032908201527f4552433732313a207472616e7366657220746f206e6f6e20455243373231526560408201527131b2b4bb32b91034b6b83632b6b2b73a32b960711b606082015260800190565b634e487b7160e01b600052601160045260246000fd5b818103818111156102b5576102b5611636565b808201808211156102b5576102b5611636565b6001600160a01b03858116825284166020820152604081018390526080606082018190526000906116a590830184611126565b9695505050505050565b6000602082840312156116c157600080fd5b8151610dd4816110cf56fea2646970667358221220d3a60a96b92c0cfc400be0d891b798b2329a6dfee6cbbc90f6718a65a6a7beb864736f6c63430008110033",
    "linkReferences": {}
  },
  "methodIdentifiers": {
    "approve(address,uint256)": "095ea7b3",
    "balanceOf(address)": "70a08231",
    "contractAddress()": "f6b4dfb4",
    "createToken(string)": "45576f94",
    "getApproved(uint256)": "081812fc",
    "giveApprovalForToken(uint256)": "439d8f74",
    "isApprovedForAll(address,address)": "e985e9c5",
    "name()": "06fdde03",
    "ownerOf(uint256)": "6352211e",
    "safeTransferFrom(address,address,uint256)": "42842e0e",
    "safeTransferFrom(address,address,uint256,bytes)": "b88d4fde",
    "setApprovalForAll(address,bool)": "a22cb465",
    "supportsInterface(bytes4)": "01ffc9a7",
    "symbol()": "95d89b41",
    "tokenURI(uint256)": "c87b56dd",
    "transferFrom(address,address,uint256)": "23b872dd"
  },
  "id": 2
}