{
  "abi": [
    {
      "inputs": [],
      "stateMutability": "nonpayable",
      "type": "constructor"
    },
    {
      "anonymous": false,
      "inputs": [
        {
          "indexed": true,
          "internalType": "uint256",
          "name": "tokenId",
          "type": "uint256"
        },
        {
          "indexed": true,
          "internalType": "address",
          "name": "owner",
          "type": "address"
        },
        {
          "indexed": false,
          "internalType": "uint256",
          "name": "price",
          "type": "uint256"
        }
      ],
      "name": "ListingCreated",
      "type": "event"
    },
    {
      "anonymous": false,
      "inputs": [
        {
          "indexed": true,
          "internalType": "uint256",
          "name": "tokenId",
          "type": "uint256"
        },
        {
          "indexed": true,
          "internalType": "address",
          "name": "owner",
          "type": "address"
        }
      ],
      "name": "ListingRemoved",
      "type": "event"
    },
    {
      "anonymous": false,
      "inputs": [
        {
          "indexed": true,
          "internalType": "uint256",
          "name": "tokenId",
          "type": "uint256"
        },
        {
          "indexed": true,
          "internalType": "address",
          "name": "owner",
          "type": "address"
        },
        {
          "indexed": true,
          "internalType": "address",
          "name": "buyer",
          "type": "address"
        },
        {
          "indexed": false,
          "internalType": "uint256",
          "name": "price",
          "type": "uint256"
        }
      ],
      "name": "ListingSold",
      "type": "event"
    },
    {
      "anonymous": false,
      "inputs": [
        {
          "indexed": true,
          "internalType": "address",
          "name": "previousOwner",
          "type": "address"
        },
        {
          "indexed": true,
          "internalType": "address",
          "name": "newOwner",
          "type": "address"
        }
      ],
      "name": "OwnershipTransferred",
      "type": "event"
    },
    {
      "inputs": [
        {
          "internalType": "uint256",
          "name": "_listingId",
          "type": "uint256"
        }
      ],
      "name": "buyListing",
      "outputs": [],
      "stateMutability": "payable",
      "type": "function"
    },
    {
      "inputs": [
        {
          "internalType": "uint256",
          "name": "_listingId",
          "type": "uint256"
        }
      ],
      "name": "getListingContract",
      "outputs": [
        {
          "internalType": "address",
          "name": "",
          "type": "address"
        }
      ],
      "stateMutability": "view",
      "type": "function"
    },
    {
      "inputs": [
        {
          "internalType": "uint256",
          "name": "_listingId",
          "type": "uint256"
        }
      ],
      "name": "getListingNftOwner",
      "outputs": [
        {
          "internalType": "address",
          "name": "",
          "type": "address"
        }
      ],
      "stateMutability": "view",
      "type": "function"
    },
    {
      "inputs": [
        {
          "internalType": "uint256",
          "name": "_listingId",
          "type": "uint256"
        }
      ],
      "name": "getListingPrice",
      "outputs": [
        {
          "internalType": "uint256",
          "name": "",
          "type": "uint256"
        }
      ],
      "stateMutability": "view",
      "type": "function"
    },
    {
      "inputs": [
        {
          "internalType": "uint256",
          "name": "_listingId",
          "type": "uint256"
        }
      ],
      "name": "getListingTokenId",
      "outputs": [
        {
          "internalType": "uint256",
          "name": "",
          "type": "uint256"
        }
      ],
      "stateMutability": "view",
      "type": "function"
    },
    {
      "inputs": [
        {
          "internalType": "uint256",
          "name": "price",
          "type": "uint256"
        }
      ],
      "name": "getPriceForListing",
      "outputs": [
        {
          "internalType": "uint256",
          "name": "price_",
          "type": "uint256"
        },
        {
          "internalType": "uint256",
          "name": "_tax",
          "type": "uint256"
        },
        {
          "internalType": "uint256",
          "name": "adjustedPrice",
          "type": "uint256"
        }
      ],
      "stateMutability": "view",
      "type": "function"
    },
    {
      "inputs": [
        {
          "internalType": "uint256",
          "name": "",
          "type": "uint256"
        }
      ],
      "name": "listings",
      "outputs": [
        {
          "internalType": "uint256",
          "name": "listingId",
          "type": "uint256"
        },
        {
          "internalType": "uint256",
          "name": "tokenId",
          "type": "uint256"
        },
        {
          "internalType": "address",
          "name": "nftOwner",
          "type": "address"
        },
        {
          "internalType": "address",
          "name": "contract_",
          "type": "address"
        },
        {
          "internalType": "uint256",
          "name": "price",
          "type": "uint256"
        }
      ],
      "stateMutability": "view",
      "type": "function"
    },
    {
      "inputs": [],
      "name": "numListings",
      "outputs": [
        {
          "internalType": "uint256",
          "name": "",
          "type": "uint256"
        }
      ],
      "stateMutability": "view",
      "type": "function"
    },
    {
      "inputs": [],
      "name": "owner",
      "outputs": [
        {
          "internalType": "address",
          "name": "",
          "type": "address"
        }
      ],
      "stateMutability": "view",
      "type": "function"
    },
    {
      "inputs": [
        {
          "internalType": "uint256",
          "name": "_listingId",
          "type": "uint256"
        }
      ],
      "name": "removeListing",
      "outputs": [],
      "stateMutability": "nonpayable",
      "type": "function"
    },
    {
      "inputs": [],
      "name": "renounceOwnership",
      "outputs": [],
      "stateMutability": "nonpayable",
      "type": "function"
    },
    {
      "inputs": [
        {
          "internalType": "uint256",
          "name": "_tokenId",
          "type": "uint256"
        },
        {
          "internalType": "uint256",
          "name": "_price",
          "type": "uint256"
        },
        {
          "internalType": "address",
          "name": "contractAdress",
          "type": "address"
        }
      ],
      "name": "sell",
      "outputs": [],
      "stateMutability": "nonpayable",
      "type": "function"
    },
    {
      "inputs": [],
      "name": "tax",
      "outputs": [
        {
          "internalType": "uint256",
          "name": "",
          "type": "uint256"
        }
      ],
      "stateMutability": "view",
      "type": "function"
    },
    {
      "inputs": [],
      "name": "taxAmount",
      "outputs": [
        {
          "internalType": "uint256",
          "name": "",
          "type": "uint256"
        }
      ],
      "stateMutability": "view",
      "type": "function"
    },
    {
      "inputs": [
        {
          "internalType": "address",
          "name": "newOwner",
          "type": "address"
        }
      ],
      "name": "transferOwnership",
      "outputs": [],
      "stateMutability": "nonpayable",
      "type": "function"
    },
    {
      "inputs": [],
      "name": "withdraw",
      "outputs": [],
      "stateMutability": "nonpayable",
      "type": "function"
    }
  ],
  "bytecode": {
    "object": "0x6080604052600180556002805534801561001857600080fd5b5061002233610027565b610077565b600080546001600160a01b038381166001600160a01b0319831681178455604051919092169283917f8be0079c531659141344cd1fd0a4f28419497f9722a3daafe3b4186f6b6457e09190a35050565b610ddb806100866000396000f3fe6080604052600436106100f35760003560e01c806399c8d5561161008a578063d04c698311610059578063d04c6983146102bf578063d6077fbf146102df578063de74e57b14610310578063f2fde38b1461039c57600080fd5b806399c8d5561461022a578063a1bdcf7114610240578063a670e96514610270578063ad5ea36f146102a957600080fd5b8063715018a6116100c6578063715018a614610182578063802c3a3a146101975780638da5cb5b146101e857806390af04c11461020657600080fd5b8063031d9af6146100f85780633ccfd60b14610138578063479ad4c31461014f5780634884f4591461016f575b600080fd5b34801561010457600080fd5b50610118610113366004610c69565b6103bc565b604080519384526020840192909252908201526060015b60405180910390f35b34801561014457600080fd5b5061014d6103f7565b005b34801561015b57600080fd5b5061014d61016a366004610c69565b6104bc565b61014d61017d366004610c69565b610635565b34801561018e57600080fd5b5061014d610958565b3480156101a357600080fd5b506101d06101b2366004610c69565b6000908152600460205260409020600301546001600160a01b031690565b6040516001600160a01b03909116815260200161012f565b3480156101f457600080fd5b506000546001600160a01b03166101d0565b34801561021257600080fd5b5061021c60015481565b60405190815260200161012f565b34801561023657600080fd5b5061021c60025481565b34801561024c57600080fd5b5061021c61025b366004610c69565b60009081526004602052604090206001015490565b34801561027c57600080fd5b506101d061028b366004610c69565b6000908152600460205260409020600201546001600160a01b031690565b3480156102b557600080fd5b5061021c60035481565b3480156102cb57600080fd5b5061014d6102da366004610c97565b61096c565b3480156102eb57600080fd5b5061021c6102fa366004610c69565b6000908152600460208190526040909120015490565b34801561031c57600080fd5b5061036861032b366004610c69565b600460208190526000918252604090912080546001820154600283015460038401549390940154919390926001600160a01b039182169291169085565b6040805195865260208601949094526001600160a01b0392831693850193909352166060830152608082015260a00161012f565b3480156103a857600080fd5b5061014d6103b7366004610cd0565b610b46565b6000806000806064600254866103d29190610d0a565b6103dc9190610d27565b905060006103ea8287610d49565b9596919594509092505050565b6103ff610bbf565b600380546000918290559061041c6000546001600160a01b031690565b6001600160a01b03168260405160006040518083038185875af1925050503d8060008114610466576040519150601f19603f3d011682016040523d82523d6000602084013e61046b565b606091505b50509050806104b85760405162461bcd60e51b81526020600482015260146024820152732330b4b632b2103a379039b2b7321022ba3432b960611b60448201526064015b60405180910390fd5b5050565b6000818152600460208190526040918290206003810154600182015493516331a9108f60e11b815292830193909352916001600160a01b03169033908290636352211e90602401602060405180830381865afa158015610520573d6000803e3d6000fd5b505050506040513d601f19601f820116820180604052508101906105449190610d5c565b6001600160a01b0316146105b15760405162461bcd60e51b815260206004820152602e60248201527f4e46544d61726b6574706c6163653a2073656e646572206973206e6f74206f7760448201526d6e6572206f66206c697374696e6760901b60648201526084016104af565b60008381526004602081905260408083208381556001808201859055600280830180546001600160a01b03199081169091556003840180549091169055919093018490558501549185015490516001600160a01b039092169290917f58b0852506006c4be6c7ae72afcd195d9e64d7f5d8947905e914b778e47b7cf39190a3505050565b6000600460008381526020019081526020016000209050600080600061065e84600401546103bc565b9250925092508034146106bf5760405162461bcd60e51b8152602060048201526024808201527f4e46544d61726b6574706c6163653a20696e636f72726563742076616c7565206044820152631cd95b9d60e21b60648201526084016104af565b6003840154600285015460018601546040516331a9108f60e11b815260048101919091526001600160a01b0392831692909116908290636352211e90602401602060405180830381865afa15801561071b573d6000803e3d6000fd5b505050506040513d601f19601f8201168201806040525081019061073f9190610d5c565b6001600160a01b0316146107b45760405162461bcd60e51b815260206004820152603660248201527f4e46544d61726b6574706c6163653a20746f6b656e206e6f206c6f6e6765722060448201527537bbb732b210313c903634b9ba34b7339037bbb732b960511b60648201526084016104af565b6107bf836002610d0a565b600360008282546107d09190610d49565b909155505060028501546001860154604051632142170760e11b81526001600160a01b0392831660048201819052336024830152604482019290925290918316906342842e0e90606401600060405180830381600087803b15801561083457600080fd5b505af1158015610848573d6000803e3d6000fd5b5050506002870180546001600160a01b031916331790555060006001600160a01b0382166108768688610d79565b604051600081818185875af1925050503d80600081146108b2576040519150601f19603f3d011682016040523d82523d6000602084013e6108b7565b606091505b50509050806108ff5760405162461bcd60e51b81526020600482015260146024820152732330b4b632b2103a379039b2b7321022ba3432b960611b60448201526064016104af565b60028701546001880154600489015460405190815233926001600160a01b031691907f390181b94203e6a571a4a2125c19b547e2eea81bec83cbee4d3911cfcee6d9fa9060200160405180910390a45050505050505050565b610960610bbf565b61096a6000610c19565b565b6040516331a9108f60e11b815260048101849052819033906001600160a01b03831690636352211e90602401602060405180830381865afa1580156109b5573d6000803e3d6000fd5b505050506040513d601f19601f820116820180604052508101906109d99190610d5c565b6001600160a01b031614610a415760405162461bcd60e51b815260206004820152602960248201527f4e46544d61726b6574706c6163653a2073656e64657220646f6573206e6f742060448201526837bbb7103a37b5b2b760b91b60648201526084016104af565b60008311610aa65760405162461bcd60e51b815260206004820152602c60248201527f4e46544d61726b6574706c6163653a207072696365206d75737420626520677260448201526b06561746572207468616e20360a41b60648201526084016104af565b6001805460008181526004602081905260408220928355828401889055600283018054336001600160a01b0319918216179091556003840180549091166001600160a01b03881617905582018690558254919290610b0383610d8c565b9091555050604051848152339086907f9adf89188ff96bbe0e772b6a9345d935a240c2bd656be8db63db0d091e92cb9d9060200160405180910390a35050505050565b610b4e610bbf565b6001600160a01b038116610bb35760405162461bcd60e51b815260206004820152602660248201527f4f776e61626c653a206e6577206f776e657220697320746865207a65726f206160448201526564647265737360d01b60648201526084016104af565b610bbc81610c19565b50565b6000546001600160a01b0316331461096a5760405162461bcd60e51b815260206004820181905260248201527f4f776e61626c653a2063616c6c6572206973206e6f7420746865206f776e657260448201526064016104af565b600080546001600160a01b038381166001600160a01b0319831681178455604051919092169283917f8be0079c531659141344cd1fd0a4f28419497f9722a3daafe3b4186f6b6457e09190a35050565b600060208284031215610c7b57600080fd5b5035919050565b6001600160a01b0381168114610bbc57600080fd5b600080600060608486031215610cac57600080fd5b83359250602084013591506040840135610cc581610c82565b809150509250925092565b600060208284031215610ce257600080fd5b8135610ced81610c82565b9392505050565b634e487b7160e01b600052601160045260246000fd5b8082028115828204841417610d2157610d21610cf4565b92915050565b600082610d4457634e487b7160e01b600052601260045260246000fd5b500490565b80820180821115610d2157610d21610cf4565b600060208284031215610d6e57600080fd5b8151610ced81610c82565b81810381811115610d2157610d21610cf4565b600060018201610d9e57610d9e610cf4565b506001019056fea26469706673582212205b8b33cae04a018ea681d0504d70f9d04c1ac6dc83c3cdc1ab5ad4faaacacbd864736f6c63430008110033",
    "linkReferences": {}
  },
  "methodIdentifiers": {
    "buyListing(uint256)": "4884f459",
    "getListingContract(uint256)": "802c3a3a",
    "getListingNftOwner(uint256)": "a670e965",
    "getListingPrice(uint256)": "d6077fbf",
    "getListingTokenId(uint256)": "a1bdcf71",
    "getPriceForListing(uint256)": "031d9af6",
    "listings(uint256)": "de74e57b",
    "numListings()": "90af04c1",
    "owner()": "8da5cb5b",
    "removeListing(uint256)": "479ad4c3",
    "renounceOwnership()": "715018a6",
    "sell(uint256,uint256,address)": "d04c6983",
    "tax()": "99c8d556",
    "taxAmount()": "ad5ea36f",
    "transferOwnership(address)": "f2fde38b",
    "withdraw()": "3ccfd60b"
  },
  "id": 1
}